{"contracts/Wallet.sol":{"Wallet":{"abi":[{"anonymous":false,"inputs":[{"indexed":false,"internalType":"uint256","name":"_layerNum","type":"uint256"},{"indexed":false,"internalType":"uint256","name":"_amountMin","type":"uint256"},{"indexed":false,"internalType":"uint256","name":"_amountMax","type":"uint256"},{"indexed":false,"internalType":"uint256","name":"_numTokens","type":"uint256"}],"name":"TestLogLayerToMakeTransfer","type":"event"},{"anonymous":false,"inputs":[{"indexed":false,"internalType":"uint256","name":"_numLayersToMakeTransfer","type":"uint256"}],"name":"TestLogNumLayersToMakeTransfer","type":"event"},{"anonymous":false,"inputs":[{"indexed":false,"internalType":"uint256","name":"_numTransferLayers","type":"uint256"}],"name":"TestLogNumTransferLayers","type":"event"},{"anonymous":false,"inputs":[{"indexed":false,"internalType":"uint256","name":"_numTransfers","type":"uint256"}],"name":"TestLogNumTransfers","type":"event"},{"anonymous":false,"inputs":[{"indexed":false,"internalType":"uint256","name":"_transferNum","type":"uint256"},{"indexed":false,"internalType":"address","name":"_receiver","type":"address"},{"indexed":false,"internalType":"uint256","name":"_amount","type":"uint256"},{"indexed":false,"internalType":"uint256","name":"_transferLayersIndex","type":"uint256"},{"indexed":false,"internalType":"bool","name":"_executed","type":"bool"}],"name":"TestLogTransfer","type":"event"},{"anonymous":false,"inputs":[{"indexed":false,"internalType":"uint256","name":"_transferNum","type":"uint256"},{"indexed":false,"internalType":"uint256","name":"_transferLayerNum","type":"uint256"},{"indexed":false,"internalType":"uint256","name":"_amountMin","type":"uint256"},{"indexed":false,"internalType":"uint256","name":"_amountMax","type":"uint256"},{"indexed":false,"internalType":"uint256","name":"_numTokens","type":"uint256"}],"name":"TestLogTransferLayer","type":"event"},{"inputs":[{"internalType":"address","name":"_receiver","type":"address"}],"name":"test","outputs":[],"stateMutability":"nonpayable","type":"function"}],"evm":{"bytecode":{"linkReferences":{},"object":"608060405234801561001057600080fd5b50610d97806100206000396000f3fe608060405234801561001057600080fd5b506004361061002b5760003560e01c8063bb29998e14610030575b600080fd5b61004a6004803603810190610045919061082d565b61004c565b005b6100546100c7565b61005c6100e1565b60006103e8905061006d82826101b6565b61007782826101b6565b61008182826101b6565b61008b82826101b6565b61009582826101b6565b61009f82826101b6565b6100a982826101b6565b6100b382826101b6565b6100bb6101c4565b6100c36102cd565b5050565b6100d3600060646103df565b6100df606460786103df565b565b7f2335b7e19425c64f82a69a5bd40a2980cb0e2b909a099264a0f0b0afa50b10a86000546040516101129190610873565b60405180910390a160005b6000548110156101b35760006001600083815260200190815260200160002090506000816000016000015490506000826000016001015490506000836002015490507fc7a6584e52e55c7edc1c05332447da489f8c3467233c097d4fa6baca773784fd85848484604051610194949392919061088e565b60405180910390a15050505080806101ab90610902565b91505061011d565b50565b6101c08282610547565b5050565b7f790b8b46c8d4131ed6f9d9ef44057cdac9b508af7420aa44e040454966ac4e226002546040516101f59190610873565b60405180910390a160005b6004548110156102ca5760005b6002548110156102b657600060036000848152602001908152602001600020600083815260200190815260200160002090506000816000016000015490506000826000016001015490506000836002015490507f59f897cb58bd33eafebd49a834201ac66d002792fac88045584cccca5aaf7366868685858560405161029795949392919061094a565b60405180910390a15050505080806102ae90610902565b91505061020d565b5080806102c290610902565b915050610200565b50565b7f68cb28cbcc62e6d7779858e52201ed9ab3cce9f18ea6234250afac841ce05b9f6004546040516102fe9190610873565b60405180910390a160005b6004548110156103dc57600060056000838152602001908152602001600020905060008160000154905060008260010160009054906101000a900473ffffffffffffffffffffffffffffffffffffffff16905060008360020154905060008460030154905060008560040160009054906101000a900460ff1690507f8c965d95076bc96ab8fe7c50fa34d05b349100a3035cc27f3b89067b651d670285858585856040516103bb9594939291906109c7565b60405180910390a150505050505080806103d490610902565b915050610309565b50565b6000600160008054815260200190815260200160002090506000604051806040016040528085815260200184815250905080826000016000820151816000015560208201518160010155905050600060405180604001604052806040518060400160405280600381526020017f455448000000000000000000000000000000000000000000000000000000000081525081526020016040518060400160405280600481526020017f5553444300000000000000000000000000000000000000000000000000000000815250815250905060005b60028110156105285760008282600281106104d0576104cf610a1a565b5b602002015190508085600301600084815260200190815260200160002090816104f99190610c8f565b5084600201600081548092919061050f90610902565b919050555050808061052090610902565b9150506104b2565b5060008081548092919061053b90610902565b91905055505050505050565b61054f61055d565b6105598282610715565b5050565b60005b600054811015610712576000600160008381526020019081526020016000209050600060036000600454815260200190815260200160002060008481526020019081526020016000209050600060405180604001604052808460000160000154815260200184600001600101548152509050808260000160008201518160000155602082015181600101559050508260020154826002018190555060005b83600201548110156106e3576000846003016000838152602001908152602001600020805461062c90610ab2565b80601f016020809104026020016040519081016040528092919081815260200182805461065890610ab2565b80156106a55780601f1061067a576101008083540402835291602001916106a5565b820191906000526020600020905b81548152906001019060200180831161068857829003601f168201915b505050505090508084600301600084815260200190815260200160002090816106ce9190610c8f565b505080806106db90610902565b9150506105fe565b50600260008154809291906106f790610902565b9190505550505050808061070a90610902565b915050610560565b50565b600060056000600454815260200190815260200160002090506004548160000181905550828160010160006101000a81548173ffffffffffffffffffffffffffffffffffffffff021916908373ffffffffffffffffffffffffffffffffffffffff160217905550818160020181905550600454816003018190555060008160040160006101000a81548160ff021916908315150217905550600460008154809291906107c090610902565b9190505550505050565b600080fd5b600073ffffffffffffffffffffffffffffffffffffffff82169050919050565b60006107fa826107cf565b9050919050565b61080a816107ef565b811461081557600080fd5b50565b60008135905061082781610801565b92915050565b600060208284031215610843576108426107ca565b5b600061085184828501610818565b91505092915050565b6000819050919050565b61086d8161085a565b82525050565b60006020820190506108886000830184610864565b92915050565b60006080820190506108a36000830187610864565b6108b06020830186610864565b6108bd6040830185610864565b6108ca6060830184610864565b95945050505050565b7f4e487b7100000000000000000000000000000000000000000000000000000000600052601160045260246000fd5b600061090d8261085a565b91507fffffffffffffffffffffffffffffffffffffffffffffffffffffffffffffffff820361093f5761093e6108d3565b5b600182019050919050565b600060a08201905061095f6000830188610864565b61096c6020830187610864565b6109796040830186610864565b6109866060830185610864565b6109936080830184610864565b9695505050505050565b6109a6816107ef565b82525050565b60008115159050919050565b6109c1816109ac565b82525050565b600060a0820190506109dc6000830188610864565b6109e9602083018761099d565b6109f66040830186610864565b610a036060830185610864565b610a1060808301846109b8565b9695505050505050565b7f4e487b7100000000000000000000000000000000000000000000000000000000600052603260045260246000fd5b600081519050919050565b7f4e487b7100000000000000000000000000000000000000000000000000000000600052604160045260246000fd5b7f4e487b7100000000000000000000000000000000000000000000000000000000600052602260045260246000fd5b60006002820490506001821680610aca57607f821691505b602082108103610add57610adc610a83565b5b50919050565b60008190508160005260206000209050919050565b60006020601f8301049050919050565b600082821b905092915050565b600060088302610b457fffffffffffffffffffffffffffffffffffffffffffffffffffffffffffffffff82610b08565b610b4f8683610b08565b95508019841693508086168417925050509392505050565b6000819050919050565b6000610b8c610b87610b828461085a565b610b67565b61085a565b9050919050565b6000819050919050565b610ba683610b71565b610bba610bb282610b93565b848454610b15565b825550505050565b600090565b610bcf610bc2565b610bda818484610b9d565b505050565b5b81811015610bfe57610bf3600082610bc7565b600181019050610be0565b5050565b601f821115610c4357610c1481610ae3565b610c1d84610af8565b81016020851015610c2c578190505b610c40610c3885610af8565b830182610bdf565b50505b505050565b600082821c905092915050565b6000610c6660001984600802610c48565b1980831691505092915050565b6000610c7f8383610c55565b9150826002028217905092915050565b610c9882610a49565b67ffffffffffffffff811115610cb157610cb0610a54565b5b610cbb8254610ab2565b610cc6828285610c02565b600060209050601f831160018114610cf95760008415610ce7578287015190505b610cf18582610c73565b865550610d59565b601f198416610d0786610ae3565b60005b82811015610d2f57848901518255600182019150602085019450602081019050610d0a565b86831015610d4c5784890151610d48601f891682610c55565b8355505b6001600288020188555050505b50505050505056fea26469706673582212207bbd6f4c90cffd2c8ab1f7e954d189d5c28f747644b55495f364355e7fcda83364736f6c63430008110033","opcodes":"PUSH1 0x80 PUSH1 0x40 MSTORE CALLVALUE DUP1 ISZERO PUSH2 0x10 JUMPI PUSH1 0x0 DUP1 REVERT JUMPDEST POP PUSH2 0xD97 DUP1 PUSH2 0x20 PUSH1 0x0 CODECOPY PUSH1 0x0 RETURN INVALID PUSH1 0x80 PUSH1 0x40 MSTORE CALLVALUE DUP1 ISZERO PUSH2 0x10 JUMPI PUSH1 0x0 DUP1 REVERT JUMPDEST POP PUSH1 0x4 CALLDATASIZE LT PUSH2 0x2B JUMPI PUSH1 0x0 CALLDATALOAD PUSH1 0xE0 SHR DUP1 PUSH4 0xBB29998E EQ PUSH2 0x30 JUMPI JUMPDEST PUSH1 0x0 DUP1 REVERT JUMPDEST PUSH2 0x4A PUSH1 0x4 DUP1 CALLDATASIZE SUB DUP2 ADD SWAP1 PUSH2 0x45 SWAP2 SWAP1 PUSH2 0x82D JUMP JUMPDEST PUSH2 0x4C JUMP JUMPDEST STOP JUMPDEST PUSH2 0x54 PUSH2 0xC7 JUMP JUMPDEST PUSH2 0x5C PUSH2 0xE1 JUMP JUMPDEST PUSH1 0x0 PUSH2 0x3E8 SWAP1 POP PUSH2 0x6D DUP3 DUP3 PUSH2 0x1B6 JUMP JUMPDEST PUSH2 0x77 DUP3 DUP3 PUSH2 0x1B6 JUMP JUMPDEST PUSH2 0x81 DUP3 DUP3 PUSH2 0x1B6 JUMP JUMPDEST PUSH2 0x8B DUP3 DUP3 PUSH2 0x1B6 JUMP JUMPDEST PUSH2 0x95 DUP3 DUP3 PUSH2 0x1B6 JUMP JUMPDEST PUSH2 0x9F DUP3 DUP3 PUSH2 0x1B6 JUMP JUMPDEST PUSH2 0xA9 DUP3 DUP3 PUSH2 0x1B6 JUMP JUMPDEST PUSH2 0xB3 DUP3 DUP3 PUSH2 0x1B6 JUMP JUMPDEST PUSH2 0xBB PUSH2 0x1C4 JUMP JUMPDEST PUSH2 0xC3 PUSH2 0x2CD JUMP JUMPDEST POP POP JUMP JUMPDEST PUSH2 0xD3 PUSH1 0x0 PUSH1 0x64 PUSH2 0x3DF JUMP JUMPDEST PUSH2 0xDF PUSH1 0x64 PUSH1 0x78 PUSH2 0x3DF JUMP JUMPDEST JUMP JUMPDEST PUSH32 0x2335B7E19425C64F82A69A5BD40A2980CB0E2B909A099264A0F0B0AFA50B10A8 PUSH1 0x0 SLOAD PUSH1 0x40 MLOAD PUSH2 0x112 SWAP2 SWAP1 PUSH2 0x873 JUMP JUMPDEST PUSH1 0x40 MLOAD DUP1 SWAP2 SUB SWAP1 LOG1 PUSH1 0x0 JUMPDEST PUSH1 0x0 SLOAD DUP2 LT ISZERO PUSH2 0x1B3 JUMPI PUSH1 0x0 PUSH1 0x1 PUSH1 0x0 DUP4 DUP2 MSTORE PUSH1 0x20 ADD SWAP1 DUP2 MSTORE PUSH1 0x20 ADD PUSH1 0x0 KECCAK256 SWAP1 POP PUSH1 0x0 DUP2 PUSH1 0x0 ADD PUSH1 0x0 ADD SLOAD SWAP1 POP PUSH1 0x0 DUP3 PUSH1 0x0 ADD PUSH1 0x1 ADD SLOAD SWAP1 POP PUSH1 0x0 DUP4 PUSH1 0x2 ADD SLOAD SWAP1 POP PUSH32 0xC7A6584E52E55C7EDC1C05332447DA489F8C3467233C097D4FA6BACA773784FD DUP6 DUP5 DUP5 DUP5 PUSH1 0x40 MLOAD PUSH2 0x194 SWAP5 SWAP4 SWAP3 SWAP2 SWAP1 PUSH2 0x88E JUMP JUMPDEST PUSH1 0x40 MLOAD DUP1 SWAP2 SUB SWAP1 LOG1 POP POP POP POP DUP1 DUP1 PUSH2 0x1AB SWAP1 PUSH2 0x902 JUMP JUMPDEST SWAP2 POP POP PUSH2 0x11D JUMP JUMPDEST POP JUMP JUMPDEST PUSH2 0x1C0 DUP3 DUP3 PUSH2 0x547 JUMP JUMPDEST POP POP JUMP JUMPDEST PUSH32 0x790B8B46C8D4131ED6F9D9EF44057CDAC9B508AF7420AA44E040454966AC4E22 PUSH1 0x2 SLOAD PUSH1 0x40 MLOAD PUSH2 0x1F5 SWAP2 SWAP1 PUSH2 0x873 JUMP JUMPDEST PUSH1 0x40 MLOAD DUP1 SWAP2 SUB SWAP1 LOG1 PUSH1 0x0 JUMPDEST PUSH1 0x4 SLOAD DUP2 LT ISZERO PUSH2 0x2CA JUMPI PUSH1 0x0 JUMPDEST PUSH1 0x2 SLOAD DUP2 LT ISZERO PUSH2 0x2B6 JUMPI PUSH1 0x0 PUSH1 0x3 PUSH1 0x0 DUP5 DUP2 MSTORE PUSH1 0x20 ADD SWAP1 DUP2 MSTORE PUSH1 0x20 ADD PUSH1 0x0 KECCAK256 PUSH1 0x0 DUP4 DUP2 MSTORE PUSH1 0x20 ADD SWAP1 DUP2 MSTORE PUSH1 0x20 ADD PUSH1 0x0 KECCAK256 SWAP1 POP PUSH1 0x0 DUP2 PUSH1 0x0 ADD PUSH1 0x0 ADD SLOAD SWAP1 POP PUSH1 0x0 DUP3 PUSH1 0x0 ADD PUSH1 0x1 ADD SLOAD SWAP1 POP PUSH1 0x0 DUP4 PUSH1 0x2 ADD SLOAD SWAP1 POP PUSH32 0x59F897CB58BD33EAFEBD49A834201AC66D002792FAC88045584CCCCA5AAF7366 DUP7 DUP7 DUP6 DUP6 DUP6 PUSH1 0x40 MLOAD PUSH2 0x297 SWAP6 SWAP5 SWAP4 SWAP3 SWAP2 SWAP1 PUSH2 0x94A JUMP JUMPDEST PUSH1 0x40 MLOAD DUP1 SWAP2 SUB SWAP1 LOG1 POP POP POP POP DUP1 DUP1 PUSH2 0x2AE SWAP1 PUSH2 0x902 JUMP JUMPDEST SWAP2 POP POP PUSH2 0x20D JUMP JUMPDEST POP DUP1 DUP1 PUSH2 0x2C2 SWAP1 PUSH2 0x902 JUMP JUMPDEST SWAP2 POP POP PUSH2 0x200 JUMP JUMPDEST POP JUMP JUMPDEST PUSH32 0x68CB28CBCC62E6D7779858E52201ED9AB3CCE9F18EA6234250AFAC841CE05B9F PUSH1 0x4 SLOAD PUSH1 0x40 MLOAD PUSH2 0x2FE SWAP2 SWAP1 PUSH2 0x873 JUMP JUMPDEST PUSH1 0x40 MLOAD DUP1 SWAP2 SUB SWAP1 LOG1 PUSH1 0x0 JUMPDEST PUSH1 0x4 SLOAD DUP2 LT ISZERO PUSH2 0x3DC JUMPI PUSH1 0x0 PUSH1 0x5 PUSH1 0x0 DUP4 DUP2 MSTORE PUSH1 0x20 ADD SWAP1 DUP2 MSTORE PUSH1 0x20 ADD PUSH1 0x0 KECCAK256 SWAP1 POP PUSH1 0x0 DUP2 PUSH1 0x0 ADD SLOAD SWAP1 POP PUSH1 0x0 DUP3 PUSH1 0x1 ADD PUSH1 0x0 SWAP1 SLOAD SWAP1 PUSH2 0x100 EXP SWAP1 DIV PUSH20 0xFFFFFFFFFFFFFFFFFFFFFFFFFFFFFFFFFFFFFFFF AND SWAP1 POP PUSH1 0x0 DUP4 PUSH1 0x2 ADD SLOAD SWAP1 POP PUSH1 0x0 DUP5 PUSH1 0x3 ADD SLOAD SWAP1 POP PUSH1 0x0 DUP6 PUSH1 0x4 ADD PUSH1 0x0 SWAP1 SLOAD SWAP1 PUSH2 0x100 EXP SWAP1 DIV PUSH1 0xFF AND SWAP1 POP PUSH32 0x8C965D95076BC96AB8FE7C50FA34D05B349100A3035CC27F3B89067B651D6702 DUP6 DUP6 DUP6 DUP6 DUP6 PUSH1 0x40 MLOAD PUSH2 0x3BB SWAP6 SWAP5 SWAP4 SWAP3 SWAP2 SWAP1 PUSH2 0x9C7 JUMP JUMPDEST PUSH1 0x40 MLOAD DUP1 SWAP2 SUB SWAP1 LOG1 POP POP POP POP POP POP DUP1 DUP1 PUSH2 0x3D4 SWAP1 PUSH2 0x902 JUMP JUMPDEST SWAP2 POP POP PUSH2 0x309 JUMP JUMPDEST POP JUMP JUMPDEST PUSH1 0x0 PUSH1 0x1 PUSH1 0x0 DUP1 SLOAD DUP2 MSTORE PUSH1 0x20 ADD SWAP1 DUP2 MSTORE PUSH1 0x20 ADD PUSH1 0x0 KECCAK256 SWAP1 POP PUSH1 0x0 PUSH1 0x40 MLOAD DUP1 PUSH1 0x40 ADD PUSH1 0x40 MSTORE DUP1 DUP6 DUP2 MSTORE PUSH1 0x20 ADD DUP5 DUP2 MSTORE POP SWAP1 POP DUP1 DUP3 PUSH1 0x0 ADD PUSH1 0x0 DUP3 ADD MLOAD DUP2 PUSH1 0x0 ADD SSTORE PUSH1 0x20 DUP3 ADD MLOAD DUP2 PUSH1 0x1 ADD SSTORE SWAP1 POP POP PUSH1 0x0 PUSH1 0x40 MLOAD DUP1 PUSH1 0x40 ADD PUSH1 0x40 MSTORE DUP1 PUSH1 0x40 MLOAD DUP1 PUSH1 0x40 ADD PUSH1 0x40 MSTORE DUP1 PUSH1 0x3 DUP2 MSTORE PUSH1 0x20 ADD PUSH32 0x4554480000000000000000000000000000000000000000000000000000000000 DUP2 MSTORE POP DUP2 MSTORE PUSH1 0x20 ADD PUSH1 0x40 MLOAD DUP1 PUSH1 0x40 ADD PUSH1 0x40 MSTORE DUP1 PUSH1 0x4 DUP2 MSTORE PUSH1 0x20 ADD PUSH32 0x5553444300000000000000000000000000000000000000000000000000000000 DUP2 MSTORE POP DUP2 MSTORE POP SWAP1 POP PUSH1 0x0 JUMPDEST PUSH1 0x2 DUP2 LT ISZERO PUSH2 0x528 JUMPI PUSH1 0x0 DUP3 DUP3 PUSH1 0x2 DUP2 LT PUSH2 0x4D0 JUMPI PUSH2 0x4CF PUSH2 0xA1A JUMP JUMPDEST JUMPDEST PUSH1 0x20 MUL ADD MLOAD SWAP1 POP DUP1 DUP6 PUSH1 0x3 ADD PUSH1 0x0 DUP5 DUP2 MSTORE PUSH1 0x20 ADD SWAP1 DUP2 MSTORE PUSH1 0x20 ADD PUSH1 0x0 KECCAK256 SWAP1 DUP2 PUSH2 0x4F9 SWAP2 SWAP1 PUSH2 0xC8F JUMP JUMPDEST POP DUP5 PUSH1 0x2 ADD PUSH1 0x0 DUP2 SLOAD DUP1 SWAP3 SWAP2 SWAP1 PUSH2 0x50F SWAP1 PUSH2 0x902 JUMP JUMPDEST SWAP2 SWAP1 POP SSTORE POP POP DUP1 DUP1 PUSH2 0x520 SWAP1 PUSH2 0x902 JUMP JUMPDEST SWAP2 POP POP PUSH2 0x4B2 JUMP JUMPDEST POP PUSH1 0x0 DUP1 DUP2 SLOAD DUP1 SWAP3 SWAP2 SWAP1 PUSH2 0x53B SWAP1 PUSH2 0x902 JUMP JUMPDEST SWAP2 SWAP1 POP SSTORE POP POP POP POP POP POP JUMP JUMPDEST PUSH2 0x54F PUSH2 0x55D JUMP JUMPDEST PUSH2 0x559 DUP3 DUP3 PUSH2 0x715 JUMP JUMPDEST POP POP JUMP JUMPDEST PUSH1 0x0 JUMPDEST PUSH1 0x0 SLOAD DUP2 LT ISZERO PUSH2 0x712 JUMPI PUSH1 0x0 PUSH1 0x1 PUSH1 0x0 DUP4 DUP2 MSTORE PUSH1 0x20 ADD SWAP1 DUP2 MSTORE PUSH1 0x20 ADD PUSH1 0x0 KECCAK256 SWAP1 POP PUSH1 0x0 PUSH1 0x3 PUSH1 0x0 PUSH1 0x4 SLOAD DUP2 MSTORE PUSH1 0x20 ADD SWAP1 DUP2 MSTORE PUSH1 0x20 ADD PUSH1 0x0 KECCAK256 PUSH1 0x0 DUP5 DUP2 MSTORE PUSH1 0x20 ADD SWAP1 DUP2 MSTORE PUSH1 0x20 ADD PUSH1 0x0 KECCAK256 SWAP1 POP PUSH1 0x0 PUSH1 0x40 MLOAD DUP1 PUSH1 0x40 ADD PUSH1 0x40 MSTORE DUP1 DUP5 PUSH1 0x0 ADD PUSH1 0x0 ADD SLOAD DUP2 MSTORE PUSH1 0x20 ADD DUP5 PUSH1 0x0 ADD PUSH1 0x1 ADD SLOAD DUP2 MSTORE POP SWAP1 POP DUP1 DUP3 PUSH1 0x0 ADD PUSH1 0x0 DUP3 ADD MLOAD DUP2 PUSH1 0x0 ADD SSTORE PUSH1 0x20 DUP3 ADD MLOAD DUP2 PUSH1 0x1 ADD SSTORE SWAP1 POP POP DUP3 PUSH1 0x2 ADD SLOAD DUP3 PUSH1 0x2 ADD DUP2 SWAP1 SSTORE POP PUSH1 0x0 JUMPDEST DUP4 PUSH1 0x2 ADD SLOAD DUP2 LT ISZERO PUSH2 0x6E3 JUMPI PUSH1 0x0 DUP5 PUSH1 0x3 ADD PUSH1 0x0 DUP4 DUP2 MSTORE PUSH1 0x20 ADD SWAP1 DUP2 MSTORE PUSH1 0x20 ADD PUSH1 0x0 KECCAK256 DUP1 SLOAD PUSH2 0x62C SWAP1 PUSH2 0xAB2 JUMP JUMPDEST DUP1 PUSH1 0x1F ADD PUSH1 0x20 DUP1 SWAP2 DIV MUL PUSH1 0x20 ADD PUSH1 0x40 MLOAD SWAP1 DUP2 ADD PUSH1 0x40 MSTORE DUP1 SWAP3 SWAP2 SWAP1 DUP2 DUP2 MSTORE PUSH1 0x20 ADD DUP3 DUP1 SLOAD PUSH2 0x658 SWAP1 PUSH2 0xAB2 JUMP JUMPDEST DUP1 ISZERO PUSH2 0x6A5 JUMPI DUP1 PUSH1 0x1F LT PUSH2 0x67A JUMPI PUSH2 0x100 DUP1 DUP4 SLOAD DIV MUL DUP4 MSTORE SWAP2 PUSH1 0x20 ADD SWAP2 PUSH2 0x6A5 JUMP JUMPDEST DUP3 ADD SWAP2 SWAP1 PUSH1 0x0 MSTORE PUSH1 0x20 PUSH1 0x0 KECCAK256 SWAP1 JUMPDEST DUP2 SLOAD DUP2 MSTORE SWAP1 PUSH1 0x1 ADD SWAP1 PUSH1 0x20 ADD DUP1 DUP4 GT PUSH2 0x688 JUMPI DUP3 SWAP1 SUB PUSH1 0x1F AND DUP3 ADD SWAP2 JUMPDEST POP POP POP POP POP SWAP1 POP DUP1 DUP5 PUSH1 0x3 ADD PUSH1 0x0 DUP5 DUP2 MSTORE PUSH1 0x20 ADD SWAP1 DUP2 MSTORE PUSH1 0x20 ADD PUSH1 0x0 KECCAK256 SWAP1 DUP2 PUSH2 0x6CE SWAP2 SWAP1 PUSH2 0xC8F JUMP JUMPDEST POP POP DUP1 DUP1 PUSH2 0x6DB SWAP1 PUSH2 0x902 JUMP JUMPDEST SWAP2 POP POP PUSH2 0x5FE JUMP JUMPDEST POP PUSH1 0x2 PUSH1 0x0 DUP2 SLOAD DUP1 SWAP3 SWAP2 SWAP1 PUSH2 0x6F7 SWAP1 PUSH2 0x902 JUMP JUMPDEST SWAP2 SWAP1 POP SSTORE POP POP POP POP DUP1 DUP1 PUSH2 0x70A SWAP1 PUSH2 0x902 JUMP JUMPDEST SWAP2 POP POP PUSH2 0x560 JUMP JUMPDEST POP JUMP JUMPDEST PUSH1 0x0 PUSH1 0x5 PUSH1 0x0 PUSH1 0x4 SLOAD DUP2 MSTORE PUSH1 0x20 ADD SWAP1 DUP2 MSTORE PUSH1 0x20 ADD PUSH1 0x0 KECCAK256 SWAP1 POP PUSH1 0x4 SLOAD DUP2 PUSH1 0x0 ADD DUP2 SWAP1 SSTORE POP DUP3 DUP2 PUSH1 0x1 ADD PUSH1 0x0 PUSH2 0x100 EXP DUP2 SLOAD DUP2 PUSH20 0xFFFFFFFFFFFFFFFFFFFFFFFFFFFFFFFFFFFFFFFF MUL NOT AND SWAP1 DUP4 PUSH20 0xFFFFFFFFFFFFFFFFFFFFFFFFFFFFFFFFFFFFFFFF AND MUL OR SWAP1 SSTORE POP DUP2 DUP2 PUSH1 0x2 ADD DUP2 SWAP1 SSTORE POP PUSH1 0x4 SLOAD DUP2 PUSH1 0x3 ADD DUP2 SWAP1 SSTORE POP PUSH1 0x0 DUP2 PUSH1 0x4 ADD PUSH1 0x0 PUSH2 0x100 EXP DUP2 SLOAD DUP2 PUSH1 0xFF MUL NOT AND SWAP1 DUP4 ISZERO ISZERO MUL OR SWAP1 SSTORE POP PUSH1 0x4 PUSH1 0x0 DUP2 SLOAD DUP1 SWAP3 SWAP2 SWAP1 PUSH2 0x7C0 SWAP1 PUSH2 0x902 JUMP JUMPDEST SWAP2 SWAP1 POP SSTORE POP POP POP POP JUMP JUMPDEST PUSH1 0x0 DUP1 REVERT JUMPDEST PUSH1 0x0 PUSH20 0xFFFFFFFFFFFFFFFFFFFFFFFFFFFFFFFFFFFFFFFF DUP3 AND SWAP1 POP SWAP2 SWAP1 POP JUMP JUMPDEST PUSH1 0x0 PUSH2 0x7FA DUP3 PUSH2 0x7CF JUMP JUMPDEST SWAP1 POP SWAP2 SWAP1 POP JUMP JUMPDEST PUSH2 0x80A DUP2 PUSH2 0x7EF JUMP JUMPDEST DUP2 EQ PUSH2 0x815 JUMPI PUSH1 0x0 DUP1 REVERT JUMPDEST POP JUMP JUMPDEST PUSH1 0x0 DUP2 CALLDATALOAD SWAP1 POP PUSH2 0x827 DUP2 PUSH2 0x801 JUMP JUMPDEST SWAP3 SWAP2 POP POP JUMP JUMPDEST PUSH1 0x0 PUSH1 0x20 DUP3 DUP5 SUB SLT ISZERO PUSH2 0x843 JUMPI PUSH2 0x842 PUSH2 0x7CA JUMP JUMPDEST JUMPDEST PUSH1 0x0 PUSH2 0x851 DUP5 DUP3 DUP6 ADD PUSH2 0x818 JUMP JUMPDEST SWAP2 POP POP SWAP3 SWAP2 POP POP JUMP JUMPDEST PUSH1 0x0 DUP2 SWAP1 POP SWAP2 SWAP1 POP JUMP JUMPDEST PUSH2 0x86D DUP2 PUSH2 0x85A JUMP JUMPDEST DUP3 MSTORE POP POP JUMP JUMPDEST PUSH1 0x0 PUSH1 0x20 DUP3 ADD SWAP1 POP PUSH2 0x888 PUSH1 0x0 DUP4 ADD DUP5 PUSH2 0x864 JUMP JUMPDEST SWAP3 SWAP2 POP POP JUMP JUMPDEST PUSH1 0x0 PUSH1 0x80 DUP3 ADD SWAP1 POP PUSH2 0x8A3 PUSH1 0x0 DUP4 ADD DUP8 PUSH2 0x864 JUMP JUMPDEST PUSH2 0x8B0 PUSH1 0x20 DUP4 ADD DUP7 PUSH2 0x864 JUMP JUMPDEST PUSH2 0x8BD PUSH1 0x40 DUP4 ADD DUP6 PUSH2 0x864 JUMP JUMPDEST PUSH2 0x8CA PUSH1 0x60 DUP4 ADD DUP5 PUSH2 0x864 JUMP JUMPDEST SWAP6 SWAP5 POP POP POP POP POP JUMP JUMPDEST PUSH32 0x4E487B7100000000000000000000000000000000000000000000000000000000 PUSH1 0x0 MSTORE PUSH1 0x11 PUSH1 0x4 MSTORE PUSH1 0x24 PUSH1 0x0 REVERT JUMPDEST PUSH1 0x0 PUSH2 0x90D DUP3 PUSH2 0x85A JUMP JUMPDEST SWAP2 POP PUSH32 0xFFFFFFFFFFFFFFFFFFFFFFFFFFFFFFFFFFFFFFFFFFFFFFFFFFFFFFFFFFFFFFFF DUP3 SUB PUSH2 0x93F JUMPI PUSH2 0x93E PUSH2 0x8D3 JUMP JUMPDEST JUMPDEST PUSH1 0x1 DUP3 ADD SWAP1 POP SWAP2 SWAP1 POP JUMP JUMPDEST PUSH1 0x0 PUSH1 0xA0 DUP3 ADD SWAP1 POP PUSH2 0x95F PUSH1 0x0 DUP4 ADD DUP9 PUSH2 0x864 JUMP JUMPDEST PUSH2 0x96C PUSH1 0x20 DUP4 ADD DUP8 PUSH2 0x864 JUMP JUMPDEST PUSH2 0x979 PUSH1 0x40 DUP4 ADD DUP7 PUSH2 0x864 JUMP JUMPDEST PUSH2 0x986 PUSH1 0x60 DUP4 ADD DUP6 PUSH2 0x864 JUMP JUMPDEST PUSH2 0x993 PUSH1 0x80 DUP4 ADD DUP5 PUSH2 0x864 JUMP JUMPDEST SWAP7 SWAP6 POP POP POP POP POP POP JUMP JUMPDEST PUSH2 0x9A6 DUP2 PUSH2 0x7EF JUMP JUMPDEST DUP3 MSTORE POP POP JUMP JUMPDEST PUSH1 0x0 DUP2 ISZERO ISZERO SWAP1 POP SWAP2 SWAP1 POP JUMP JUMPDEST PUSH2 0x9C1 DUP2 PUSH2 0x9AC JUMP JUMPDEST DUP3 MSTORE POP POP JUMP JUMPDEST PUSH1 0x0 PUSH1 0xA0 DUP3 ADD SWAP1 POP PUSH2 0x9DC PUSH1 0x0 DUP4 ADD DUP9 PUSH2 0x864 JUMP JUMPDEST PUSH2 0x9E9 PUSH1 0x20 DUP4 ADD DUP8 PUSH2 0x99D JUMP JUMPDEST PUSH2 0x9F6 PUSH1 0x40 DUP4 ADD DUP7 PUSH2 0x864 JUMP JUMPDEST PUSH2 0xA03 PUSH1 0x60 DUP4 ADD DUP6 PUSH2 0x864 JUMP JUMPDEST PUSH2 0xA10 PUSH1 0x80 DUP4 ADD DUP5 PUSH2 0x9B8 JUMP JUMPDEST SWAP7 SWAP6 POP POP POP POP POP POP JUMP JUMPDEST PUSH32 0x4E487B7100000000000000000000000000000000000000000000000000000000 PUSH1 0x0 MSTORE PUSH1 0x32 PUSH1 0x4 MSTORE PUSH1 0x24 PUSH1 0x0 REVERT JUMPDEST PUSH1 0x0 DUP2 MLOAD SWAP1 POP SWAP2 SWAP1 POP JUMP JUMPDEST PUSH32 0x4E487B7100000000000000000000000000000000000000000000000000000000 PUSH1 0x0 MSTORE PUSH1 0x41 PUSH1 0x4 MSTORE PUSH1 0x24 PUSH1 0x0 REVERT JUMPDEST PUSH32 0x4E487B7100000000000000000000000000000000000000000000000000000000 PUSH1 0x0 MSTORE PUSH1 0x22 PUSH1 0x4 MSTORE PUSH1 0x24 PUSH1 0x0 REVERT JUMPDEST PUSH1 0x0 PUSH1 0x2 DUP3 DIV SWAP1 POP PUSH1 0x1 DUP3 AND DUP1 PUSH2 0xACA JUMPI PUSH1 0x7F DUP3 AND SWAP2 POP JUMPDEST PUSH1 0x20 DUP3 LT DUP2 SUB PUSH2 0xADD JUMPI PUSH2 0xADC PUSH2 0xA83 JUMP JUMPDEST JUMPDEST POP SWAP2 SWAP1 POP JUMP JUMPDEST PUSH1 0x0 DUP2 SWAP1 POP DUP2 PUSH1 0x0 MSTORE PUSH1 0x20 PUSH1 0x0 KECCAK256 SWAP1 POP SWAP2 SWAP1 POP JUMP JUMPDEST PUSH1 0x0 PUSH1 0x20 PUSH1 0x1F DUP4 ADD DIV SWAP1 POP SWAP2 SWAP1 POP JUMP JUMPDEST PUSH1 0x0 DUP3 DUP3 SHL SWAP1 POP SWAP3 SWAP2 POP POP JUMP JUMPDEST PUSH1 0x0 PUSH1 0x8 DUP4 MUL PUSH2 0xB45 PUSH32 0xFFFFFFFFFFFFFFFFFFFFFFFFFFFFFFFFFFFFFFFFFFFFFFFFFFFFFFFFFFFFFFFF DUP3 PUSH2 0xB08 JUMP JUMPDEST PUSH2 0xB4F DUP7 DUP4 PUSH2 0xB08 JUMP JUMPDEST SWAP6 POP DUP1 NOT DUP5 AND SWAP4 POP DUP1 DUP7 AND DUP5 OR SWAP3 POP POP POP SWAP4 SWAP3 POP POP POP JUMP JUMPDEST PUSH1 0x0 DUP2 SWAP1 POP SWAP2 SWAP1 POP JUMP JUMPDEST PUSH1 0x0 PUSH2 0xB8C PUSH2 0xB87 PUSH2 0xB82 DUP5 PUSH2 0x85A JUMP JUMPDEST PUSH2 0xB67 JUMP JUMPDEST PUSH2 0x85A JUMP JUMPDEST SWAP1 POP SWAP2 SWAP1 POP JUMP JUMPDEST PUSH1 0x0 DUP2 SWAP1 POP SWAP2 SWAP1 POP JUMP JUMPDEST PUSH2 0xBA6 DUP4 PUSH2 0xB71 JUMP JUMPDEST PUSH2 0xBBA PUSH2 0xBB2 DUP3 PUSH2 0xB93 JUMP JUMPDEST DUP5 DUP5 SLOAD PUSH2 0xB15 JUMP JUMPDEST DUP3 SSTORE POP POP POP POP JUMP JUMPDEST PUSH1 0x0 SWAP1 JUMP JUMPDEST PUSH2 0xBCF PUSH2 0xBC2 JUMP JUMPDEST PUSH2 0xBDA DUP2 DUP5 DUP5 PUSH2 0xB9D JUMP JUMPDEST POP POP POP JUMP JUMPDEST JUMPDEST DUP2 DUP2 LT ISZERO PUSH2 0xBFE JUMPI PUSH2 0xBF3 PUSH1 0x0 DUP3 PUSH2 0xBC7 JUMP JUMPDEST PUSH1 0x1 DUP2 ADD SWAP1 POP PUSH2 0xBE0 JUMP JUMPDEST POP POP JUMP JUMPDEST PUSH1 0x1F DUP3 GT ISZERO PUSH2 0xC43 JUMPI PUSH2 0xC14 DUP2 PUSH2 0xAE3 JUMP JUMPDEST PUSH2 0xC1D DUP5 PUSH2 0xAF8 JUMP JUMPDEST DUP2 ADD PUSH1 0x20 DUP6 LT ISZERO PUSH2 0xC2C JUMPI DUP2 SWAP1 POP JUMPDEST PUSH2 0xC40 PUSH2 0xC38 DUP6 PUSH2 0xAF8 JUMP JUMPDEST DUP4 ADD DUP3 PUSH2 0xBDF JUMP JUMPDEST POP POP JUMPDEST POP POP POP JUMP JUMPDEST PUSH1 0x0 DUP3 DUP3 SHR SWAP1 POP SWAP3 SWAP2 POP POP JUMP JUMPDEST PUSH1 0x0 PUSH2 0xC66 PUSH1 0x0 NOT DUP5 PUSH1 0x8 MUL PUSH2 0xC48 JUMP JUMPDEST NOT DUP1 DUP4 AND SWAP2 POP POP SWAP3 SWAP2 POP POP JUMP JUMPDEST PUSH1 0x0 PUSH2 0xC7F DUP4 DUP4 PUSH2 0xC55 JUMP JUMPDEST SWAP2 POP DUP3 PUSH1 0x2 MUL DUP3 OR SWAP1 POP SWAP3 SWAP2 POP POP JUMP JUMPDEST PUSH2 0xC98 DUP3 PUSH2 0xA49 JUMP JUMPDEST PUSH8 0xFFFFFFFFFFFFFFFF DUP2 GT ISZERO PUSH2 0xCB1 JUMPI PUSH2 0xCB0 PUSH2 0xA54 JUMP JUMPDEST JUMPDEST PUSH2 0xCBB DUP3 SLOAD PUSH2 0xAB2 JUMP JUMPDEST PUSH2 0xCC6 DUP3 DUP3 DUP6 PUSH2 0xC02 JUMP JUMPDEST PUSH1 0x0 PUSH1 0x20 SWAP1 POP PUSH1 0x1F DUP4 GT PUSH1 0x1 DUP2 EQ PUSH2 0xCF9 JUMPI PUSH1 0x0 DUP5 ISZERO PUSH2 0xCE7 JUMPI DUP3 DUP8 ADD MLOAD SWAP1 POP JUMPDEST PUSH2 0xCF1 DUP6 DUP3 PUSH2 0xC73 JUMP JUMPDEST DUP7 SSTORE POP PUSH2 0xD59 JUMP JUMPDEST PUSH1 0x1F NOT DUP5 AND PUSH2 0xD07 DUP7 PUSH2 0xAE3 JUMP JUMPDEST PUSH1 0x0 JUMPDEST DUP3 DUP2 LT ISZERO PUSH2 0xD2F JUMPI DUP5 DUP10 ADD MLOAD DUP3 SSTORE PUSH1 0x1 DUP3 ADD SWAP2 POP PUSH1 0x20 DUP6 ADD SWAP5 POP PUSH1 0x20 DUP2 ADD SWAP1 POP PUSH2 0xD0A JUMP JUMPDEST DUP7 DUP4 LT ISZERO PUSH2 0xD4C JUMPI DUP5 DUP10 ADD MLOAD PUSH2 0xD48 PUSH1 0x1F DUP10 AND DUP3 PUSH2 0xC55 JUMP JUMPDEST DUP4 SSTORE POP JUMPDEST PUSH1 0x1 PUSH1 0x2 DUP9 MUL ADD DUP9 SSTORE POP POP POP JUMPDEST POP POP POP POP POP POP JUMP INVALID LOG2 PUSH5 0x6970667358 0x22 SLT KECCAK256 PUSH28 0xBD6F4C90CFFD2C8AB1F7E954D189D5C28F747644B55495F364355E7F 0xCD 0xA8 CALLER PUSH5 0x736F6C6343 STOP ADDMOD GT STOP CALLER "},"methodIdentifiers":{"test(address)":"bb29998e"}}}}}