{"contracts/Wallet.sol":{"Wallet":{"abi":[{"anonymous":false,"inputs":[{"indexed":false,"internalType":"uint256","name":"_layerNum","type":"uint256"},{"indexed":false,"internalType":"uint256","name":"_amountMin","type":"uint256"},{"indexed":false,"internalType":"uint256","name":"_amountMax","type":"uint256"},{"indexed":false,"internalType":"uint256","name":"_numTokens","type":"uint256"}],"name":"TestLogLayerToMakeTransfer","type":"event"},{"anonymous":false,"inputs":[{"indexed":false,"internalType":"uint256","name":"_numLayersToMakeTransfer","type":"uint256"}],"name":"TestLogNumLayersToMakeTransfer","type":"event"},{"anonymous":false,"inputs":[{"indexed":false,"internalType":"uint256","name":"_numTransferLayers","type":"uint256"}],"name":"TestLogNumTransferLayers","type":"event"},{"anonymous":false,"inputs":[{"indexed":false,"internalType":"uint256","name":"_numTransfers","type":"uint256"}],"name":"TestLogNumTransfers","type":"event"},{"anonymous":false,"inputs":[{"indexed":false,"internalType":"uint256","name":"_transferNum","type":"uint256"},{"indexed":false,"internalType":"address","name":"_receiver","type":"address"},{"indexed":false,"internalType":"uint256","name":"_amount","type":"uint256"},{"indexed":false,"internalType":"uint256","name":"_transferLayersIndex","type":"uint256"},{"indexed":false,"internalType":"bool","name":"_executed","type":"bool"}],"name":"TestLogTransfer","type":"event"},{"anonymous":false,"inputs":[{"indexed":false,"internalType":"uint256","name":"_amountMin","type":"uint256"},{"indexed":false,"internalType":"uint256","name":"_amountMax","type":"uint256"}],"name":"TestLogTransferLayer","type":"event"},{"inputs":[{"internalType":"address","name":"_receiver","type":"address"}],"name":"test","outputs":[],"stateMutability":"nonpayable","type":"function"}],"evm":{"bytecode":{"linkReferences":{},"object":"608060405234801561001057600080fd5b50610a81806100206000396000f3fe608060405234801561001057600080fd5b506004361061002b5760003560e01c8063bb29998e14610030575b600080fd5b61004a600480360381019061004591906105e7565b61004c565b005b610054610079565b61005c610093565b60006103e8905061006d8282610168565b610075610176565b5050565b610085600060646101b1565b610091606460786101b1565b565b7f2335b7e19425c64f82a69a5bd40a2980cb0e2b909a099264a0f0b0afa50b10a86000546040516100c4919061062d565b60405180910390a160005b6000548110156101655760006001600083815260200190815260200160002090506000816000016000015490506000826000016001015490506000836002015490507fc7a6584e52e55c7edc1c05332447da489f8c3467233c097d4fa6baca773784fd858484846040516101469493929190610648565b60405180910390a150505050808061015d906106bc565b9150506100cf565b50565b6101728282610319565b5050565b7f790b8b46c8d4131ed6f9d9ef44057cdac9b508af7420aa44e040454966ac4e226002546040516101a7919061062d565b60405180910390a1565b6000600160008054815260200190815260200160002090506000604051806040016040528085815260200184815250905080826000016000820151816000015560208201518160010155905050600060405180604001604052806040518060400160405280600381526020017f455448000000000000000000000000000000000000000000000000000000000081525081526020016040518060400160405280600481526020017f5553444300000000000000000000000000000000000000000000000000000000815250815250905060005b60028110156102fa5760008282600281106102a2576102a1610704565b5b602002015190508085600301600084815260200190815260200160002090816102cb9190610979565b508460020160008154809291906102e1906106bc565b91905055505080806102f2906106bc565b915050610284565b5060008081548092919061030d906106bc565b91905055505050505050565b61032161032f565b61032b82826104cf565b5050565b60005b6000548110156104cc576000600160008381526020019081526020016000209050600060036000600454815260200190815260200160002060008481526020019081526020016000209050600060405180604001604052808460000160000154815260200184600001600101548152509050808260000160008201518160000155602082015181600101559050508260020154826002018190555060005b83600201548110156104b557600084600301600083815260200190815260200160002080546103fe9061079c565b80601f016020809104026020016040519081016040528092919081815260200182805461042a9061079c565b80156104775780601f1061044c57610100808354040283529160200191610477565b820191906000526020600020905b81548152906001019060200180831161045a57829003601f168201915b505050505090508084600301600084815260200190815260200160002090816104a09190610979565b505080806104ad906106bc565b9150506103d0565b5050505080806104c4906106bc565b915050610332565b50565b600060056000600454815260200190815260200160002090506004548160000181905550828160010160006101000a81548173ffffffffffffffffffffffffffffffffffffffff021916908373ffffffffffffffffffffffffffffffffffffffff160217905550818160020181905550600454816003018190555060008160040160006101000a81548160ff0219169083151502179055506004600081548092919061057a906106bc565b9190505550505050565b600080fd5b600073ffffffffffffffffffffffffffffffffffffffff82169050919050565b60006105b482610589565b9050919050565b6105c4816105a9565b81146105cf57600080fd5b50565b6000813590506105e1816105bb565b92915050565b6000602082840312156105fd576105fc610584565b5b600061060b848285016105d2565b91505092915050565b6000819050919050565b61062781610614565b82525050565b6000602082019050610642600083018461061e565b92915050565b600060808201905061065d600083018761061e565b61066a602083018661061e565b610677604083018561061e565b610684606083018461061e565b95945050505050565b7f4e487b7100000000000000000000000000000000000000000000000000000000600052601160045260246000fd5b60006106c782610614565b91507fffffffffffffffffffffffffffffffffffffffffffffffffffffffffffffffff82036106f9576106f861068d565b5b600182019050919050565b7f4e487b7100000000000000000000000000000000000000000000000000000000600052603260045260246000fd5b600081519050919050565b7f4e487b7100000000000000000000000000000000000000000000000000000000600052604160045260246000fd5b7f4e487b7100000000000000000000000000000000000000000000000000000000600052602260045260246000fd5b600060028204905060018216806107b457607f821691505b6020821081036107c7576107c661076d565b5b50919050565b60008190508160005260206000209050919050565b60006020601f8301049050919050565b600082821b905092915050565b60006008830261082f7fffffffffffffffffffffffffffffffffffffffffffffffffffffffffffffffff826107f2565b61083986836107f2565b95508019841693508086168417925050509392505050565b6000819050919050565b600061087661087161086c84610614565b610851565b610614565b9050919050565b6000819050919050565b6108908361085b565b6108a461089c8261087d565b8484546107ff565b825550505050565b600090565b6108b96108ac565b6108c4818484610887565b505050565b5b818110156108e8576108dd6000826108b1565b6001810190506108ca565b5050565b601f82111561092d576108fe816107cd565b610907846107e2565b81016020851015610916578190505b61092a610922856107e2565b8301826108c9565b50505b505050565b600082821c905092915050565b600061095060001984600802610932565b1980831691505092915050565b6000610969838361093f565b9150826002028217905092915050565b61098282610733565b67ffffffffffffffff81111561099b5761099a61073e565b5b6109a5825461079c565b6109b08282856108ec565b600060209050601f8311600181146109e357600084156109d1578287015190505b6109db858261095d565b865550610a43565b601f1984166109f1866107cd565b60005b82811015610a19578489015182556001820191506020850194506020810190506109f4565b86831015610a365784890151610a32601f89168261093f565b8355505b6001600288020188555050505b50505050505056fea2646970667358221220f38bd3050eccc1931c0a387ed8f79b6a6ea776ab29222fede881eec5bf7474c064736f6c63430008110033","opcodes":"PUSH1 0x80 PUSH1 0x40 MSTORE CALLVALUE DUP1 ISZERO PUSH2 0x10 JUMPI PUSH1 0x0 DUP1 REVERT JUMPDEST POP PUSH2 0xA81 DUP1 PUSH2 0x20 PUSH1 0x0 CODECOPY PUSH1 0x0 RETURN INVALID PUSH1 0x80 PUSH1 0x40 MSTORE CALLVALUE DUP1 ISZERO PUSH2 0x10 JUMPI PUSH1 0x0 DUP1 REVERT JUMPDEST POP PUSH1 0x4 CALLDATASIZE LT PUSH2 0x2B JUMPI PUSH1 0x0 CALLDATALOAD PUSH1 0xE0 SHR DUP1 PUSH4 0xBB29998E EQ PUSH2 0x30 JUMPI JUMPDEST PUSH1 0x0 DUP1 REVERT JUMPDEST PUSH2 0x4A PUSH1 0x4 DUP1 CALLDATASIZE SUB DUP2 ADD SWAP1 PUSH2 0x45 SWAP2 SWAP1 PUSH2 0x5E7 JUMP JUMPDEST PUSH2 0x4C JUMP JUMPDEST STOP JUMPDEST PUSH2 0x54 PUSH2 0x79 JUMP JUMPDEST PUSH2 0x5C PUSH2 0x93 JUMP JUMPDEST PUSH1 0x0 PUSH2 0x3E8 SWAP1 POP PUSH2 0x6D DUP3 DUP3 PUSH2 0x168 JUMP JUMPDEST PUSH2 0x75 PUSH2 0x176 JUMP JUMPDEST POP POP JUMP JUMPDEST PUSH2 0x85 PUSH1 0x0 PUSH1 0x64 PUSH2 0x1B1 JUMP JUMPDEST PUSH2 0x91 PUSH1 0x64 PUSH1 0x78 PUSH2 0x1B1 JUMP JUMPDEST JUMP JUMPDEST PUSH32 0x2335B7E19425C64F82A69A5BD40A2980CB0E2B909A099264A0F0B0AFA50B10A8 PUSH1 0x0 SLOAD PUSH1 0x40 MLOAD PUSH2 0xC4 SWAP2 SWAP1 PUSH2 0x62D JUMP JUMPDEST PUSH1 0x40 MLOAD DUP1 SWAP2 SUB SWAP1 LOG1 PUSH1 0x0 JUMPDEST PUSH1 0x0 SLOAD DUP2 LT ISZERO PUSH2 0x165 JUMPI PUSH1 0x0 PUSH1 0x1 PUSH1 0x0 DUP4 DUP2 MSTORE PUSH1 0x20 ADD SWAP1 DUP2 MSTORE PUSH1 0x20 ADD PUSH1 0x0 KECCAK256 SWAP1 POP PUSH1 0x0 DUP2 PUSH1 0x0 ADD PUSH1 0x0 ADD SLOAD SWAP1 POP PUSH1 0x0 DUP3 PUSH1 0x0 ADD PUSH1 0x1 ADD SLOAD SWAP1 POP PUSH1 0x0 DUP4 PUSH1 0x2 ADD SLOAD SWAP1 POP PUSH32 0xC7A6584E52E55C7EDC1C05332447DA489F8C3467233C097D4FA6BACA773784FD DUP6 DUP5 DUP5 DUP5 PUSH1 0x40 MLOAD PUSH2 0x146 SWAP5 SWAP4 SWAP3 SWAP2 SWAP1 PUSH2 0x648 JUMP JUMPDEST PUSH1 0x40 MLOAD DUP1 SWAP2 SUB SWAP1 LOG1 POP POP POP POP DUP1 DUP1 PUSH2 0x15D SWAP1 PUSH2 0x6BC JUMP JUMPDEST SWAP2 POP POP PUSH2 0xCF JUMP JUMPDEST POP JUMP JUMPDEST PUSH2 0x172 DUP3 DUP3 PUSH2 0x319 JUMP JUMPDEST POP POP JUMP JUMPDEST PUSH32 0x790B8B46C8D4131ED6F9D9EF44057CDAC9B508AF7420AA44E040454966AC4E22 PUSH1 0x2 SLOAD PUSH1 0x40 MLOAD PUSH2 0x1A7 SWAP2 SWAP1 PUSH2 0x62D JUMP JUMPDEST PUSH1 0x40 MLOAD DUP1 SWAP2 SUB SWAP1 LOG1 JUMP JUMPDEST PUSH1 0x0 PUSH1 0x1 PUSH1 0x0 DUP1 SLOAD DUP2 MSTORE PUSH1 0x20 ADD SWAP1 DUP2 MSTORE PUSH1 0x20 ADD PUSH1 0x0 KECCAK256 SWAP1 POP PUSH1 0x0 PUSH1 0x40 MLOAD DUP1 PUSH1 0x40 ADD PUSH1 0x40 MSTORE DUP1 DUP6 DUP2 MSTORE PUSH1 0x20 ADD DUP5 DUP2 MSTORE POP SWAP1 POP DUP1 DUP3 PUSH1 0x0 ADD PUSH1 0x0 DUP3 ADD MLOAD DUP2 PUSH1 0x0 ADD SSTORE PUSH1 0x20 DUP3 ADD MLOAD DUP2 PUSH1 0x1 ADD SSTORE SWAP1 POP POP PUSH1 0x0 PUSH1 0x40 MLOAD DUP1 PUSH1 0x40 ADD PUSH1 0x40 MSTORE DUP1 PUSH1 0x40 MLOAD DUP1 PUSH1 0x40 ADD PUSH1 0x40 MSTORE DUP1 PUSH1 0x3 DUP2 MSTORE PUSH1 0x20 ADD PUSH32 0x4554480000000000000000000000000000000000000000000000000000000000 DUP2 MSTORE POP DUP2 MSTORE PUSH1 0x20 ADD PUSH1 0x40 MLOAD DUP1 PUSH1 0x40 ADD PUSH1 0x40 MSTORE DUP1 PUSH1 0x4 DUP2 MSTORE PUSH1 0x20 ADD PUSH32 0x5553444300000000000000000000000000000000000000000000000000000000 DUP2 MSTORE POP DUP2 MSTORE POP SWAP1 POP PUSH1 0x0 JUMPDEST PUSH1 0x2 DUP2 LT ISZERO PUSH2 0x2FA JUMPI PUSH1 0x0 DUP3 DUP3 PUSH1 0x2 DUP2 LT PUSH2 0x2A2 JUMPI PUSH2 0x2A1 PUSH2 0x704 JUMP JUMPDEST JUMPDEST PUSH1 0x20 MUL ADD MLOAD SWAP1 POP DUP1 DUP6 PUSH1 0x3 ADD PUSH1 0x0 DUP5 DUP2 MSTORE PUSH1 0x20 ADD SWAP1 DUP2 MSTORE PUSH1 0x20 ADD PUSH1 0x0 KECCAK256 SWAP1 DUP2 PUSH2 0x2CB SWAP2 SWAP1 PUSH2 0x979 JUMP JUMPDEST POP DUP5 PUSH1 0x2 ADD PUSH1 0x0 DUP2 SLOAD DUP1 SWAP3 SWAP2 SWAP1 PUSH2 0x2E1 SWAP1 PUSH2 0x6BC JUMP JUMPDEST SWAP2 SWAP1 POP SSTORE POP POP DUP1 DUP1 PUSH2 0x2F2 SWAP1 PUSH2 0x6BC JUMP JUMPDEST SWAP2 POP POP PUSH2 0x284 JUMP JUMPDEST POP PUSH1 0x0 DUP1 DUP2 SLOAD DUP1 SWAP3 SWAP2 SWAP1 PUSH2 0x30D SWAP1 PUSH2 0x6BC JUMP JUMPDEST SWAP2 SWAP1 POP SSTORE POP POP POP POP POP POP JUMP JUMPDEST PUSH2 0x321 PUSH2 0x32F JUMP JUMPDEST PUSH2 0x32B DUP3 DUP3 PUSH2 0x4CF JUMP JUMPDEST POP POP JUMP JUMPDEST PUSH1 0x0 JUMPDEST PUSH1 0x0 SLOAD DUP2 LT ISZERO PUSH2 0x4CC JUMPI PUSH1 0x0 PUSH1 0x1 PUSH1 0x0 DUP4 DUP2 MSTORE PUSH1 0x20 ADD SWAP1 DUP2 MSTORE PUSH1 0x20 ADD PUSH1 0x0 KECCAK256 SWAP1 POP PUSH1 0x0 PUSH1 0x3 PUSH1 0x0 PUSH1 0x4 SLOAD DUP2 MSTORE PUSH1 0x20 ADD SWAP1 DUP2 MSTORE PUSH1 0x20 ADD PUSH1 0x0 KECCAK256 PUSH1 0x0 DUP5 DUP2 MSTORE PUSH1 0x20 ADD SWAP1 DUP2 MSTORE PUSH1 0x20 ADD PUSH1 0x0 KECCAK256 SWAP1 POP PUSH1 0x0 PUSH1 0x40 MLOAD DUP1 PUSH1 0x40 ADD PUSH1 0x40 MSTORE DUP1 DUP5 PUSH1 0x0 ADD PUSH1 0x0 ADD SLOAD DUP2 MSTORE PUSH1 0x20 ADD DUP5 PUSH1 0x0 ADD PUSH1 0x1 ADD SLOAD DUP2 MSTORE POP SWAP1 POP DUP1 DUP3 PUSH1 0x0 ADD PUSH1 0x0 DUP3 ADD MLOAD DUP2 PUSH1 0x0 ADD SSTORE PUSH1 0x20 DUP3 ADD MLOAD DUP2 PUSH1 0x1 ADD SSTORE SWAP1 POP POP DUP3 PUSH1 0x2 ADD SLOAD DUP3 PUSH1 0x2 ADD DUP2 SWAP1 SSTORE POP PUSH1 0x0 JUMPDEST DUP4 PUSH1 0x2 ADD SLOAD DUP2 LT ISZERO PUSH2 0x4B5 JUMPI PUSH1 0x0 DUP5 PUSH1 0x3 ADD PUSH1 0x0 DUP4 DUP2 MSTORE PUSH1 0x20 ADD SWAP1 DUP2 MSTORE PUSH1 0x20 ADD PUSH1 0x0 KECCAK256 DUP1 SLOAD PUSH2 0x3FE SWAP1 PUSH2 0x79C JUMP JUMPDEST DUP1 PUSH1 0x1F ADD PUSH1 0x20 DUP1 SWAP2 DIV MUL PUSH1 0x20 ADD PUSH1 0x40 MLOAD SWAP1 DUP2 ADD PUSH1 0x40 MSTORE DUP1 SWAP3 SWAP2 SWAP1 DUP2 DUP2 MSTORE PUSH1 0x20 ADD DUP3 DUP1 SLOAD PUSH2 0x42A SWAP1 PUSH2 0x79C JUMP JUMPDEST DUP1 ISZERO PUSH2 0x477 JUMPI DUP1 PUSH1 0x1F LT PUSH2 0x44C JUMPI PUSH2 0x100 DUP1 DUP4 SLOAD DIV MUL DUP4 MSTORE SWAP2 PUSH1 0x20 ADD SWAP2 PUSH2 0x477 JUMP JUMPDEST DUP3 ADD SWAP2 SWAP1 PUSH1 0x0 MSTORE PUSH1 0x20 PUSH1 0x0 KECCAK256 SWAP1 JUMPDEST DUP2 SLOAD DUP2 MSTORE SWAP1 PUSH1 0x1 ADD SWAP1 PUSH1 0x20 ADD DUP1 DUP4 GT PUSH2 0x45A JUMPI DUP3 SWAP1 SUB PUSH1 0x1F AND DUP3 ADD SWAP2 JUMPDEST POP POP POP POP POP SWAP1 POP DUP1 DUP5 PUSH1 0x3 ADD PUSH1 0x0 DUP5 DUP2 MSTORE PUSH1 0x20 ADD SWAP1 DUP2 MSTORE PUSH1 0x20 ADD PUSH1 0x0 KECCAK256 SWAP1 DUP2 PUSH2 0x4A0 SWAP2 SWAP1 PUSH2 0x979 JUMP JUMPDEST POP POP DUP1 DUP1 PUSH2 0x4AD SWAP1 PUSH2 0x6BC JUMP JUMPDEST SWAP2 POP POP PUSH2 0x3D0 JUMP JUMPDEST POP POP POP POP DUP1 DUP1 PUSH2 0x4C4 SWAP1 PUSH2 0x6BC JUMP JUMPDEST SWAP2 POP POP PUSH2 0x332 JUMP JUMPDEST POP JUMP JUMPDEST PUSH1 0x0 PUSH1 0x5 PUSH1 0x0 PUSH1 0x4 SLOAD DUP2 MSTORE PUSH1 0x20 ADD SWAP1 DUP2 MSTORE PUSH1 0x20 ADD PUSH1 0x0 KECCAK256 SWAP1 POP PUSH1 0x4 SLOAD DUP2 PUSH1 0x0 ADD DUP2 SWAP1 SSTORE POP DUP3 DUP2 PUSH1 0x1 ADD PUSH1 0x0 PUSH2 0x100 EXP DUP2 SLOAD DUP2 PUSH20 0xFFFFFFFFFFFFFFFFFFFFFFFFFFFFFFFFFFFFFFFF MUL NOT AND SWAP1 DUP4 PUSH20 0xFFFFFFFFFFFFFFFFFFFFFFFFFFFFFFFFFFFFFFFF AND MUL OR SWAP1 SSTORE POP DUP2 DUP2 PUSH1 0x2 ADD DUP2 SWAP1 SSTORE POP PUSH1 0x4 SLOAD DUP2 PUSH1 0x3 ADD DUP2 SWAP1 SSTORE POP PUSH1 0x0 DUP2 PUSH1 0x4 ADD PUSH1 0x0 PUSH2 0x100 EXP DUP2 SLOAD DUP2 PUSH1 0xFF MUL NOT AND SWAP1 DUP4 ISZERO ISZERO MUL OR SWAP1 SSTORE POP PUSH1 0x4 PUSH1 0x0 DUP2 SLOAD DUP1 SWAP3 SWAP2 SWAP1 PUSH2 0x57A SWAP1 PUSH2 0x6BC JUMP JUMPDEST SWAP2 SWAP1 POP SSTORE POP POP POP POP JUMP JUMPDEST PUSH1 0x0 DUP1 REVERT JUMPDEST PUSH1 0x0 PUSH20 0xFFFFFFFFFFFFFFFFFFFFFFFFFFFFFFFFFFFFFFFF DUP3 AND SWAP1 POP SWAP2 SWAP1 POP JUMP JUMPDEST PUSH1 0x0 PUSH2 0x5B4 DUP3 PUSH2 0x589 JUMP JUMPDEST SWAP1 POP SWAP2 SWAP1 POP JUMP JUMPDEST PUSH2 0x5C4 DUP2 PUSH2 0x5A9 JUMP JUMPDEST DUP2 EQ PUSH2 0x5CF JUMPI PUSH1 0x0 DUP1 REVERT JUMPDEST POP JUMP JUMPDEST PUSH1 0x0 DUP2 CALLDATALOAD SWAP1 POP PUSH2 0x5E1 DUP2 PUSH2 0x5BB JUMP JUMPDEST SWAP3 SWAP2 POP POP JUMP JUMPDEST PUSH1 0x0 PUSH1 0x20 DUP3 DUP5 SUB SLT ISZERO PUSH2 0x5FD JUMPI PUSH2 0x5FC PUSH2 0x584 JUMP JUMPDEST JUMPDEST PUSH1 0x0 PUSH2 0x60B DUP5 DUP3 DUP6 ADD PUSH2 0x5D2 JUMP JUMPDEST SWAP2 POP POP SWAP3 SWAP2 POP POP JUMP JUMPDEST PUSH1 0x0 DUP2 SWAP1 POP SWAP2 SWAP1 POP JUMP JUMPDEST PUSH2 0x627 DUP2 PUSH2 0x614 JUMP JUMPDEST DUP3 MSTORE POP POP JUMP JUMPDEST PUSH1 0x0 PUSH1 0x20 DUP3 ADD SWAP1 POP PUSH2 0x642 PUSH1 0x0 DUP4 ADD DUP5 PUSH2 0x61E JUMP JUMPDEST SWAP3 SWAP2 POP POP JUMP JUMPDEST PUSH1 0x0 PUSH1 0x80 DUP3 ADD SWAP1 POP PUSH2 0x65D PUSH1 0x0 DUP4 ADD DUP8 PUSH2 0x61E JUMP JUMPDEST PUSH2 0x66A PUSH1 0x20 DUP4 ADD DUP7 PUSH2 0x61E JUMP JUMPDEST PUSH2 0x677 PUSH1 0x40 DUP4 ADD DUP6 PUSH2 0x61E JUMP JUMPDEST PUSH2 0x684 PUSH1 0x60 DUP4 ADD DUP5 PUSH2 0x61E JUMP JUMPDEST SWAP6 SWAP5 POP POP POP POP POP JUMP JUMPDEST PUSH32 0x4E487B7100000000000000000000000000000000000000000000000000000000 PUSH1 0x0 MSTORE PUSH1 0x11 PUSH1 0x4 MSTORE PUSH1 0x24 PUSH1 0x0 REVERT JUMPDEST PUSH1 0x0 PUSH2 0x6C7 DUP3 PUSH2 0x614 JUMP JUMPDEST SWAP2 POP PUSH32 0xFFFFFFFFFFFFFFFFFFFFFFFFFFFFFFFFFFFFFFFFFFFFFFFFFFFFFFFFFFFFFFFF DUP3 SUB PUSH2 0x6F9 JUMPI PUSH2 0x6F8 PUSH2 0x68D JUMP JUMPDEST JUMPDEST PUSH1 0x1 DUP3 ADD SWAP1 POP SWAP2 SWAP1 POP JUMP JUMPDEST PUSH32 0x4E487B7100000000000000000000000000000000000000000000000000000000 PUSH1 0x0 MSTORE PUSH1 0x32 PUSH1 0x4 MSTORE PUSH1 0x24 PUSH1 0x0 REVERT JUMPDEST PUSH1 0x0 DUP2 MLOAD SWAP1 POP SWAP2 SWAP1 POP JUMP JUMPDEST PUSH32 0x4E487B7100000000000000000000000000000000000000000000000000000000 PUSH1 0x0 MSTORE PUSH1 0x41 PUSH1 0x4 MSTORE PUSH1 0x24 PUSH1 0x0 REVERT JUMPDEST PUSH32 0x4E487B7100000000000000000000000000000000000000000000000000000000 PUSH1 0x0 MSTORE PUSH1 0x22 PUSH1 0x4 MSTORE PUSH1 0x24 PUSH1 0x0 REVERT JUMPDEST PUSH1 0x0 PUSH1 0x2 DUP3 DIV SWAP1 POP PUSH1 0x1 DUP3 AND DUP1 PUSH2 0x7B4 JUMPI PUSH1 0x7F DUP3 AND SWAP2 POP JUMPDEST PUSH1 0x20 DUP3 LT DUP2 SUB PUSH2 0x7C7 JUMPI PUSH2 0x7C6 PUSH2 0x76D JUMP JUMPDEST JUMPDEST POP SWAP2 SWAP1 POP JUMP JUMPDEST PUSH1 0x0 DUP2 SWAP1 POP DUP2 PUSH1 0x0 MSTORE PUSH1 0x20 PUSH1 0x0 KECCAK256 SWAP1 POP SWAP2 SWAP1 POP JUMP JUMPDEST PUSH1 0x0 PUSH1 0x20 PUSH1 0x1F DUP4 ADD DIV SWAP1 POP SWAP2 SWAP1 POP JUMP JUMPDEST PUSH1 0x0 DUP3 DUP3 SHL SWAP1 POP SWAP3 SWAP2 POP POP JUMP JUMPDEST PUSH1 0x0 PUSH1 0x8 DUP4 MUL PUSH2 0x82F PUSH32 0xFFFFFFFFFFFFFFFFFFFFFFFFFFFFFFFFFFFFFFFFFFFFFFFFFFFFFFFFFFFFFFFF DUP3 PUSH2 0x7F2 JUMP JUMPDEST PUSH2 0x839 DUP7 DUP4 PUSH2 0x7F2 JUMP JUMPDEST SWAP6 POP DUP1 NOT DUP5 AND SWAP4 POP DUP1 DUP7 AND DUP5 OR SWAP3 POP POP POP SWAP4 SWAP3 POP POP POP JUMP JUMPDEST PUSH1 0x0 DUP2 SWAP1 POP SWAP2 SWAP1 POP JUMP JUMPDEST PUSH1 0x0 PUSH2 0x876 PUSH2 0x871 PUSH2 0x86C DUP5 PUSH2 0x614 JUMP JUMPDEST PUSH2 0x851 JUMP JUMPDEST PUSH2 0x614 JUMP JUMPDEST SWAP1 POP SWAP2 SWAP1 POP JUMP JUMPDEST PUSH1 0x0 DUP2 SWAP1 POP SWAP2 SWAP1 POP JUMP JUMPDEST PUSH2 0x890 DUP4 PUSH2 0x85B JUMP JUMPDEST PUSH2 0x8A4 PUSH2 0x89C DUP3 PUSH2 0x87D JUMP JUMPDEST DUP5 DUP5 SLOAD PUSH2 0x7FF JUMP JUMPDEST DUP3 SSTORE POP POP POP POP JUMP JUMPDEST PUSH1 0x0 SWAP1 JUMP JUMPDEST PUSH2 0x8B9 PUSH2 0x8AC JUMP JUMPDEST PUSH2 0x8C4 DUP2 DUP5 DUP5 PUSH2 0x887 JUMP JUMPDEST POP POP POP JUMP JUMPDEST JUMPDEST DUP2 DUP2 LT ISZERO PUSH2 0x8E8 JUMPI PUSH2 0x8DD PUSH1 0x0 DUP3 PUSH2 0x8B1 JUMP JUMPDEST PUSH1 0x1 DUP2 ADD SWAP1 POP PUSH2 0x8CA JUMP JUMPDEST POP POP JUMP JUMPDEST PUSH1 0x1F DUP3 GT ISZERO PUSH2 0x92D JUMPI PUSH2 0x8FE DUP2 PUSH2 0x7CD JUMP JUMPDEST PUSH2 0x907 DUP5 PUSH2 0x7E2 JUMP JUMPDEST DUP2 ADD PUSH1 0x20 DUP6 LT ISZERO PUSH2 0x916 JUMPI DUP2 SWAP1 POP JUMPDEST PUSH2 0x92A PUSH2 0x922 DUP6 PUSH2 0x7E2 JUMP JUMPDEST DUP4 ADD DUP3 PUSH2 0x8C9 JUMP JUMPDEST POP POP JUMPDEST POP POP POP JUMP JUMPDEST PUSH1 0x0 DUP3 DUP3 SHR SWAP1 POP SWAP3 SWAP2 POP POP JUMP JUMPDEST PUSH1 0x0 PUSH2 0x950 PUSH1 0x0 NOT DUP5 PUSH1 0x8 MUL PUSH2 0x932 JUMP JUMPDEST NOT DUP1 DUP4 AND SWAP2 POP POP SWAP3 SWAP2 POP POP JUMP JUMPDEST PUSH1 0x0 PUSH2 0x969 DUP4 DUP4 PUSH2 0x93F JUMP JUMPDEST SWAP2 POP DUP3 PUSH1 0x2 MUL DUP3 OR SWAP1 POP SWAP3 SWAP2 POP POP JUMP JUMPDEST PUSH2 0x982 DUP3 PUSH2 0x733 JUMP JUMPDEST PUSH8 0xFFFFFFFFFFFFFFFF DUP2 GT ISZERO PUSH2 0x99B JUMPI PUSH2 0x99A PUSH2 0x73E JUMP JUMPDEST JUMPDEST PUSH2 0x9A5 DUP3 SLOAD PUSH2 0x79C JUMP JUMPDEST PUSH2 0x9B0 DUP3 DUP3 DUP6 PUSH2 0x8EC JUMP JUMPDEST PUSH1 0x0 PUSH1 0x20 SWAP1 POP PUSH1 0x1F DUP4 GT PUSH1 0x1 DUP2 EQ PUSH2 0x9E3 JUMPI PUSH1 0x0 DUP5 ISZERO PUSH2 0x9D1 JUMPI DUP3 DUP8 ADD MLOAD SWAP1 POP JUMPDEST PUSH2 0x9DB DUP6 DUP3 PUSH2 0x95D JUMP JUMPDEST DUP7 SSTORE POP PUSH2 0xA43 JUMP JUMPDEST PUSH1 0x1F NOT DUP5 AND PUSH2 0x9F1 DUP7 PUSH2 0x7CD JUMP JUMPDEST PUSH1 0x0 JUMPDEST DUP3 DUP2 LT ISZERO PUSH2 0xA19 JUMPI DUP5 DUP10 ADD MLOAD DUP3 SSTORE PUSH1 0x1 DUP3 ADD SWAP2 POP PUSH1 0x20 DUP6 ADD SWAP5 POP PUSH1 0x20 DUP2 ADD SWAP1 POP PUSH2 0x9F4 JUMP JUMPDEST DUP7 DUP4 LT ISZERO PUSH2 0xA36 JUMPI DUP5 DUP10 ADD MLOAD PUSH2 0xA32 PUSH1 0x1F DUP10 AND DUP3 PUSH2 0x93F JUMP JUMPDEST DUP4 SSTORE POP JUMPDEST PUSH1 0x1 PUSH1 0x2 DUP9 MUL ADD DUP9 SSTORE POP POP POP JUMPDEST POP POP POP POP POP POP JUMP INVALID LOG2 PUSH5 0x6970667358 0x22 SLT KECCAK256 RETURN DUP12 0xD3 SDIV 0xE 0xCC 0xC1 SWAP4 SHR EXP CODESIZE PUSH31 0xD8F79B6A6EA776AB29222FEDE881EEC5BF7474C064736F6C63430008110033 "},"methodIdentifiers":{"test(address)":"bb29998e"}}}}}