{
  "_format": "hh-sol-artifact-1",
  "contractName": "Wallet",
  "sourceName": "contracts/Wallet.sol",
  "abi": [
    {
      "anonymous": false,
      "inputs": [
        {
          "indexed": false,
          "internalType": "uint256",
          "name": "_layerNum",
          "type": "uint256"
        },
        {
          "indexed": false,
          "internalType": "uint256",
          "name": "_amountMin",
          "type": "uint256"
        },
        {
          "indexed": false,
          "internalType": "uint256",
          "name": "_amountMax",
          "type": "uint256"
        },
        {
          "indexed": false,
          "internalType": "uint256",
          "name": "_numTokens",
          "type": "uint256"
        }
      ],
      "name": "TestLogLayerToMakeTransfer",
      "type": "event"
    },
    {
      "anonymous": false,
      "inputs": [
        {
          "indexed": false,
          "internalType": "uint256",
          "name": "_numLayersToMakeTransfer",
          "type": "uint256"
        }
      ],
      "name": "TestLogNumLayersToMakeTransfer",
      "type": "event"
    },
    {
      "anonymous": false,
      "inputs": [
        {
          "indexed": false,
          "internalType": "uint256",
          "name": "_numTransfers",
          "type": "uint256"
        }
      ],
      "name": "TestLogNumTransfers",
      "type": "event"
    },
    {
      "anonymous": false,
      "inputs": [
        {
          "indexed": false,
          "internalType": "uint256",
          "name": "_transferNum",
          "type": "uint256"
        },
        {
          "indexed": false,
          "internalType": "address",
          "name": "_receiver",
          "type": "address"
        },
        {
          "indexed": false,
          "internalType": "uint256",
          "name": "_amount",
          "type": "uint256"
        },
        {
          "indexed": false,
          "internalType": "uint256",
          "name": "_transferLayersIndex",
          "type": "uint256"
        },
        {
          "indexed": false,
          "internalType": "bool",
          "name": "_executed",
          "type": "bool"
        }
      ],
      "name": "TestLogTransfer",
      "type": "event"
    },
    {
      "inputs": [
        {
          "internalType": "address",
          "name": "_receiver",
          "type": "address"
        }
      ],
      "name": "test",
      "outputs": [],
      "stateMutability": "nonpayable",
      "type": "function"
    }
  ],
  "bytecode": "0x608060405234801561001057600080fd5b506107b3806100206000396000f3fe608060405234801561001057600080fd5b506004361061002b5760003560e01c8063bb29998e14610030575b600080fd5b61004a60048036038101906100459190610319565b61004c565b005b61005461005f565b61005c610079565b50565b61006b6000606461014e565b6100776064607861014e565b565b7f2335b7e19425c64f82a69a5bd40a2980cb0e2b909a099264a0f0b0afa50b10a86000546040516100aa919061035f565b60405180910390a160005b60005481101561014b5760006001600083815260200190815260200160002090506000816000016000015490506000826000016001015490506000836002015490507fc7a6584e52e55c7edc1c05332447da489f8c3467233c097d4fa6baca773784fd8584848460405161012c949392919061037a565b60405180910390a1505050508080610143906103ee565b9150506100b5565b50565b6000600160008054815260200190815260200160002090506000604051806040016040528085815260200184815250905080826000016000820151816000015560208201518160010155905050600060405180604001604052806040518060400160405280600381526020017f455448000000000000000000000000000000000000000000000000000000000081525081526020016040518060400160405280600481526020017f5553444300000000000000000000000000000000000000000000000000000000815250815250905060005b600281101561029757600082826002811061023f5761023e610436565b5b6020020151905080856003016000848152602001908152602001600020908161026891906106ab565b5084600201600081548092919061027e906103ee565b919050555050808061028f906103ee565b915050610221565b506000808154809291906102aa906103ee565b91905055505050505050565b600080fd5b600073ffffffffffffffffffffffffffffffffffffffff82169050919050565b60006102e6826102bb565b9050919050565b6102f6816102db565b811461030157600080fd5b50565b600081359050610313816102ed565b92915050565b60006020828403121561032f5761032e6102b6565b5b600061033d84828501610304565b91505092915050565b6000819050919050565b61035981610346565b82525050565b60006020820190506103746000830184610350565b92915050565b600060808201905061038f6000830187610350565b61039c6020830186610350565b6103a96040830185610350565b6103b66060830184610350565b95945050505050565b7f4e487b7100000000000000000000000000000000000000000000000000000000600052601160045260246000fd5b60006103f982610346565b91507fffffffffffffffffffffffffffffffffffffffffffffffffffffffffffffffff820361042b5761042a6103bf565b5b600182019050919050565b7f4e487b7100000000000000000000000000000000000000000000000000000000600052603260045260246000fd5b600081519050919050565b7f4e487b7100000000000000000000000000000000000000000000000000000000600052604160045260246000fd5b7f4e487b7100000000000000000000000000000000000000000000000000000000600052602260045260246000fd5b600060028204905060018216806104e657607f821691505b6020821081036104f9576104f861049f565b5b50919050565b60008190508160005260206000209050919050565b60006020601f8301049050919050565b600082821b905092915050565b6000600883026105617fffffffffffffffffffffffffffffffffffffffffffffffffffffffffffffffff82610524565b61056b8683610524565b95508019841693508086168417925050509392505050565b6000819050919050565b60006105a86105a361059e84610346565b610583565b610346565b9050919050565b6000819050919050565b6105c28361058d565b6105d66105ce826105af565b848454610531565b825550505050565b600090565b6105eb6105de565b6105f68184846105b9565b505050565b5b8181101561061a5761060f6000826105e3565b6001810190506105fc565b5050565b601f82111561065f57610630816104ff565b61063984610514565b81016020851015610648578190505b61065c61065485610514565b8301826105fb565b50505b505050565b600082821c905092915050565b600061068260001984600802610664565b1980831691505092915050565b600061069b8383610671565b9150826002028217905092915050565b6106b482610465565b67ffffffffffffffff8111156106cd576106cc610470565b5b6106d782546104ce565b6106e282828561061e565b600060209050601f8311600181146107155760008415610703578287015190505b61070d858261068f565b865550610775565b601f198416610723866104ff565b60005b8281101561074b57848901518255600182019150602085019450602081019050610726565b868310156107685784890151610764601f891682610671565b8355505b6001600288020188555050505b50505050505056fea2646970667358221220f5b334df87601c623296ca4d64e2953af617e459749a895ea47f06603d16c38064736f6c63430008110033",
  "linkReferences": {},
  "deployedLinkReferences": {}
}