{
  "_format": "hh-sol-artifact-1",
  "contractName": "Wallet",
  "sourceName": "contracts/Wallet.sol",
  "abi": [
    {
      "anonymous": false,
      "inputs": [
        {
          "indexed": false,
          "internalType": "uint256",
          "name": "_layerNum",
          "type": "uint256"
        },
        {
          "indexed": false,
          "internalType": "uint256",
          "name": "_amountMin",
          "type": "uint256"
        },
        {
          "indexed": false,
          "internalType": "uint256",
          "name": "_amountMax",
          "type": "uint256"
        },
        {
          "indexed": false,
          "internalType": "uint256",
          "name": "_numTokens",
          "type": "uint256"
        }
      ],
      "name": "TestLogLayerToMakeTransfer",
      "type": "event"
    },
    {
      "anonymous": false,
      "inputs": [
        {
          "indexed": false,
          "internalType": "uint256",
          "name": "_numLayersToMakeTransfer",
          "type": "uint256"
        }
      ],
      "name": "TestLogNumLayersToMakeTransfer",
      "type": "event"
    },
    {
      "anonymous": false,
      "inputs": [
        {
          "indexed": false,
          "internalType": "uint256",
          "name": "_numTransferLayers",
          "type": "uint256"
        }
      ],
      "name": "TestLogNumTransferLayers",
      "type": "event"
    },
    {
      "anonymous": false,
      "inputs": [
        {
          "indexed": false,
          "internalType": "uint256",
          "name": "_numTransfers",
          "type": "uint256"
        }
      ],
      "name": "TestLogNumTransfers",
      "type": "event"
    },
    {
      "anonymous": false,
      "inputs": [
        {
          "indexed": false,
          "internalType": "uint256",
          "name": "_transferNum",
          "type": "uint256"
        },
        {
          "indexed": false,
          "internalType": "address",
          "name": "_receiver",
          "type": "address"
        },
        {
          "indexed": false,
          "internalType": "uint256",
          "name": "_amount",
          "type": "uint256"
        },
        {
          "indexed": false,
          "internalType": "uint256",
          "name": "_transferLayersIndex",
          "type": "uint256"
        },
        {
          "indexed": false,
          "internalType": "bool",
          "name": "_executed",
          "type": "bool"
        }
      ],
      "name": "TestLogTransfer",
      "type": "event"
    },
    {
      "anonymous": false,
      "inputs": [
        {
          "indexed": false,
          "internalType": "uint256",
          "name": "_amountMin",
          "type": "uint256"
        },
        {
          "indexed": false,
          "internalType": "uint256",
          "name": "_amountMax",
          "type": "uint256"
        }
      ],
      "name": "TestLogTransferLayer",
      "type": "event"
    },
    {
      "inputs": [
        {
          "internalType": "address",
          "name": "_receiver",
          "type": "address"
        }
      ],
      "name": "test",
      "outputs": [],
      "stateMutability": "nonpayable",
      "type": "function"
    }
  ],
  "bytecode": "0x608060405234801561001057600080fd5b50610a81806100206000396000f3fe608060405234801561001057600080fd5b506004361061002b5760003560e01c8063bb29998e14610030575b600080fd5b61004a600480360381019061004591906105e7565b61004c565b005b610054610079565b61005c610093565b60006103e8905061006d8282610168565b610075610176565b5050565b610085600060646101b1565b610091606460786101b1565b565b7f2335b7e19425c64f82a69a5bd40a2980cb0e2b909a099264a0f0b0afa50b10a86000546040516100c4919061062d565b60405180910390a160005b6000548110156101655760006001600083815260200190815260200160002090506000816000016000015490506000826000016001015490506000836002015490507fc7a6584e52e55c7edc1c05332447da489f8c3467233c097d4fa6baca773784fd858484846040516101469493929190610648565b60405180910390a150505050808061015d906106bc565b9150506100cf565b50565b6101728282610319565b5050565b7f790b8b46c8d4131ed6f9d9ef44057cdac9b508af7420aa44e040454966ac4e226002546040516101a7919061062d565b60405180910390a1565b6000600160008054815260200190815260200160002090506000604051806040016040528085815260200184815250905080826000016000820151816000015560208201518160010155905050600060405180604001604052806040518060400160405280600381526020017f455448000000000000000000000000000000000000000000000000000000000081525081526020016040518060400160405280600481526020017f5553444300000000000000000000000000000000000000000000000000000000815250815250905060005b60028110156102fa5760008282600281106102a2576102a1610704565b5b602002015190508085600301600084815260200190815260200160002090816102cb9190610979565b508460020160008154809291906102e1906106bc565b91905055505080806102f2906106bc565b915050610284565b5060008081548092919061030d906106bc565b91905055505050505050565b61032161032f565b61032b82826104cf565b5050565b60005b6000548110156104cc576000600160008381526020019081526020016000209050600060036000600454815260200190815260200160002060008481526020019081526020016000209050600060405180604001604052808460000160000154815260200184600001600101548152509050808260000160008201518160000155602082015181600101559050508260020154826002018190555060005b83600201548110156104b557600084600301600083815260200190815260200160002080546103fe9061079c565b80601f016020809104026020016040519081016040528092919081815260200182805461042a9061079c565b80156104775780601f1061044c57610100808354040283529160200191610477565b820191906000526020600020905b81548152906001019060200180831161045a57829003601f168201915b505050505090508084600301600084815260200190815260200160002090816104a09190610979565b505080806104ad906106bc565b9150506103d0565b5050505080806104c4906106bc565b915050610332565b50565b600060056000600454815260200190815260200160002090506004548160000181905550828160010160006101000a81548173ffffffffffffffffffffffffffffffffffffffff021916908373ffffffffffffffffffffffffffffffffffffffff160217905550818160020181905550600454816003018190555060008160040160006101000a81548160ff0219169083151502179055506004600081548092919061057a906106bc565b9190505550505050565b600080fd5b600073ffffffffffffffffffffffffffffffffffffffff82169050919050565b60006105b482610589565b9050919050565b6105c4816105a9565b81146105cf57600080fd5b50565b6000813590506105e1816105bb565b92915050565b6000602082840312156105fd576105fc610584565b5b600061060b848285016105d2565b91505092915050565b6000819050919050565b61062781610614565b82525050565b6000602082019050610642600083018461061e565b92915050565b600060808201905061065d600083018761061e565b61066a602083018661061e565b610677604083018561061e565b610684606083018461061e565b95945050505050565b7f4e487b7100000000000000000000000000000000000000000000000000000000600052601160045260246000fd5b60006106c782610614565b91507fffffffffffffffffffffffffffffffffffffffffffffffffffffffffffffffff82036106f9576106f861068d565b5b600182019050919050565b7f4e487b7100000000000000000000000000000000000000000000000000000000600052603260045260246000fd5b600081519050919050565b7f4e487b7100000000000000000000000000000000000000000000000000000000600052604160045260246000fd5b7f4e487b7100000000000000000000000000000000000000000000000000000000600052602260045260246000fd5b600060028204905060018216806107b457607f821691505b6020821081036107c7576107c661076d565b5b50919050565b60008190508160005260206000209050919050565b60006020601f8301049050919050565b600082821b905092915050565b60006008830261082f7fffffffffffffffffffffffffffffffffffffffffffffffffffffffffffffffff826107f2565b61083986836107f2565b95508019841693508086168417925050509392505050565b6000819050919050565b600061087661087161086c84610614565b610851565b610614565b9050919050565b6000819050919050565b6108908361085b565b6108a461089c8261087d565b8484546107ff565b825550505050565b600090565b6108b96108ac565b6108c4818484610887565b505050565b5b818110156108e8576108dd6000826108b1565b6001810190506108ca565b5050565b601f82111561092d576108fe816107cd565b610907846107e2565b81016020851015610916578190505b61092a610922856107e2565b8301826108c9565b50505b505050565b600082821c905092915050565b600061095060001984600802610932565b1980831691505092915050565b6000610969838361093f565b9150826002028217905092915050565b61098282610733565b67ffffffffffffffff81111561099b5761099a61073e565b5b6109a5825461079c565b6109b08282856108ec565b600060209050601f8311600181146109e357600084156109d1578287015190505b6109db858261095d565b865550610a43565b601f1984166109f1866107cd565b60005b82811015610a19578489015182556001820191506020850194506020810190506109f4565b86831015610a365784890151610a32601f89168261093f565b8355505b6001600288020188555050505b50505050505056fea2646970667358221220f38bd3050eccc1931c0a387ed8f79b6a6ea776ab29222fede881eec5bf7474c064736f6c63430008110033",
  "linkReferences": {},
  "deployedLinkReferences": {}
}